:060000000A128A112529F5
:10000800F000030EF1000B1813210B191B21710EC0
:080018008300F00E700E0900D8
:100200008A010A1482073F3406345B344F34663463
:100210006D347D3407347F34673477347C3439343B
:100220005E347934713403138312061C850A861CEC
:1002300085030B1008006421720800218800F20A6F
:100240000F30720203192D2108006021322157213D
:100250000508002187002829282972080021880024
:10026000F20108000317831688018901031383161E
:100270000614861487018801850105168516051761
:1002800085178113151495140313831285018701B3
:100290008801031383168112811101148114011541
:1002A000031383160F138F120F160F140800031376
:1002B0008316161496140313831206080B100800F5
:1002C0008B150B108B160800863081000B1108006F
:04400E00C430FF3F7C
:00000001FF
